:1000000008308A00002800000C102010C224452768
:10001000D622CE24C4275310201020050000201023
:10002000201020102010201000010C10202661311B
:100030002E10C3376E3AF2376C10201020050001E5
:1000400020102010413B6137FA30E4372010201097
:1000500020000C102010C3376E3AF237EC30E43732
:10006000721020102005000120102010A027CE17AC
:100070004F2346102010201000018C277039E936DC
:1000800061106536202849275F2130100A000A38A0
:1000900061396110A030EA3A733A613920242E1098
:1000A00000018C1654172010C834733A6539E539AD
:1000B000E9392D000A2AF232E61EA5192E19E61298
:1000C000E3212010201000008A20EE31E8372024A0
:1000D000AE1EA5192E19E612E32100010A10202AEE
:1000E000C81EA5192E19E612E321201020000A10BF
:1000F000202ACC1EA5192E19E612E321201020007B
:100100000A29E534EE34E3346139202849275F2198
:1001100031008A226D38653D6139202849275F21E9
:10012000301020000C286139E136653AF23773004F
:10013000D31EA0274E102010201020330001531D85
:10014000A02746232010201020005B30840083135A
:1001500000080319B8280230F800F701F70BAE28A1
:10016000F80BAD289730F700F70BB428800BAB28BD
:1001700008006218BD288811BE28881583168811CA
:100180008312E218C5280812C6280816831608121A
:1001900083126219CD288812CE28881683168812F9
:1001A0008312E219D5280813D628081783160813D6
:1001B00000008312081583160811DE28DF28831239
:1001C00008118316081183120800E30183168815AD
:1001D0000030831288190130E304831608160030BA
:1001E0008312081A0130F7000310F70D7708E304B3
:1001F0008316881600308312881A0130F700F70D35
:10020000F70DFC30F7057708E30483160817003074
:100210008312081B0130F700F70DF70DF70DF830CA
:10022000F7057708E3046308F8000800831608114F
:1002300008108810831208108316081088150816F5
:1002400088160817831288148316881000008312FA
:1002500008158316081100008312E5207808E200D3
:10026000081183160811000083120815831608115F
:1002700039298312E5207808E10008118316081156
:1002800088110812881208138312620EF700F030EA
:10029000F70577086104F8007808E100E11F5229AA
:1002A00083161E29DF08031D572908105829081432
:1002B000831608100000831288108316881000002F
:1002C00083120811831608118312600EE1000F30AB
:1002D000E1056108E200B92060080F39E100E200A1
:1002E000B92008002830CE000C30CF000130D000FB
:1002F0000630D100081183160811831208108316E6
:10030000081083128810831688108811081288122A
:1003100008130811081088100F308312DB00A52085
:100320000130CD004D08033C031C9E290330E20040
:10033000B9200530DB00A520CD0A92290230E20069
:10034000B9200530DB00A520CD014D08033C031C7E
:10035000B5294E304D07840083130008D200DF0119
:100360005208E0001621CD0AA5298A150A12202874
:100370005C0BBB29BE294030DD00BF29DD01013007
:100380005B02DD075D088038DE00DF015E08E0000B
:10039000162108005A08073A0319D8290B3A0319FD
:1003A000DD29063A0319E529023A0319EB29F02958
:1003B0000130DB00DC00B821F629DF010130E0006C
:1003C00016210230DB00A520F6290130DB000230C7
:1003D000DC00B821F629DF011030E0001621F629F3
:1003E0000130DF005A08E0001621F62908008316C4
:1003F00003178C170C140000000083120C087F39BF
:1004000003193B2A0313CD0003170D080313CE0075
:1004100003170F080313CF004D08DA00CA214E0856
:1004200003178D0003134F0803178F0083168C17D3
:100430000C140000000083120C0D0E0D7F390319FF
:100440003B2A0313CD0003170D080313CE00031737
:100450000F080313CF004D08DA00CA214E08031716
:100460008D0003134F0803178F008D0A03198F0A9D
:100470000313F7290317031308001030D100F70105
:10048000FA01CE0CCD0C031C4B2A4F08F7070318BA
:10049000FA0A5008FA07FA0CF70CF90CF80CD10B11
:1004A000412A08008E30F7005008F8004F08F90084
:1004B000FA01F808031D662A7908F800F9010830E6
:1004C000F702F808031D662AF7016E2A0310F81BCD
:1004D0006D2AF90DF80DF703662AF81308004F0886
:1004E0000319342BDB0053080319342BDB02031CE4
:1004F0007E2A7F30DB070318342B842A8130DB020D
:10050000031C342B0319342B5B08F700F801F901A5
:10051000FA01DA015008D900D9175108D800520859
:10052000D7001930DB005608D7020318A72A01307C
:10053000D8020318A72AD9020318A72ADA02031837
:10054000A72ADA0AD90AD80A5608D707D92A550895
:10055000D8020318C22A0130D9020318C22ADA02CB
:100560000318C22ADA0AD90A5508D8075608D70745
:10057000031CD92AD80A031DD92AD90A031DD92A4E
:10058000DA0AD92A54088038D9020318D82A013047
:10059000DA020318D82ADA0A54088038D90755082D
:1005A000D807031CB62AD90A031DB62ADA0AB62AC6
:1005B0007A14DB0BDC2AE72A0310D70DD80DD90DEE
:1005C000DA0D0310FA0DF90DF80DDC0D932A5C1C01
:1005D000EF2A0310F80CF90CFA0CDC0CF22AF703E2
:1005E0000319342BDC1B1B2B0310D70DD80DD90D91
:1005F000DA0D5608D7020318072B0130D80203186A
:10060000072BD9020318072BDA02031C2A2B5508E3
:10061000D8020318122B0130D9020318122BDA0268
:10062000031C2A2B54088038D90203181B2B0130D5
:10063000DA02031C2A2BFA0A031D2A2BF90A031DCE
:100640002A2BF80A031D2A2BF70A0319342BF80C5E
:10065000F90CFA0C5008DB005408DB06DB1F322BC8
:10066000F817382BF813382BF701F801F901FA01C4
:100670000800831603178C170C14000000000318E1
:10068000682B83120C087F390313CE0003170D0863
:100690000313CF0003170F080313D0004E08DA002E
:1006A000CA214F0803178D000313500803178F004A
:1006B00083168C170C140000000083120313CD0B5B
:1006C000622B652B83160317682B862B8316031763
:1006D00083120C0D0E0D7F390313CE0003170D0886
:1006E0000313CF0003170F080313D0004E08DA00DE
:1006F000CA214F0803178D000313500803178F00FA
:100700008D0A03198F0A0313CD0B392B0800F7014B
:10071000F801F901FA01E201E301E401E5016108F0
:1007200060045F045E040319C52B2030E60003104B
:10073000DA0DDB0DDC0DDD0DE20DE30DE40DE50D55
:1007400061086502031DAE2B60086402031DAE2B19
:100750005F086302031DAE2B5E086202031CBF2B01
:100760005E08E2025F08031C5F0FE3026008031CDF
:10077000600FE4026108031C610FE5020314F70D2A
:10078000F80DF90DFA0DE60B972B623084008313F8
:1007900008000408D2005108D40003195B2C50084B
:1007A000DD004F08DC004E08DB004D08DA00E101F7
:1007B000E0012030DF008230DE005A0803194D2CA2
:1007C000E2005E0803194D2CE2070318EE2B7F3080
:1007D000E202031C4D2C03194D2CF22B8130E20751
:1007E00003184D2C6208F700F801F901FA015B08C3
:1007F000E600E6175C08E5005D08E4001830E2005A
:10080000E301641C1B2C6108FA07031C0D2CF90A78
:10081000031D0D2CF80A0319E3176008F907031CE0
:10082000142CF80A0319E3175F08DC00DC175C08D6
:10083000F8070318E317E30DF80CF90CFA0CE60CB3
:10084000E50CE40C0310E20B002C0130F707031851
:100850004D2CF81B322CE60DFA0DF90DF80DF703AF
:1008600003194D2CE61F432CFA0A031D432CF90AE9
:10087000031D432CF80A031D432CF80CF90CFA0C49
:10088000F70A03194D2C5B08E3005F08E306E31F3A
:100890004B2CF817512CF813512CF701F801F901E2
:1008A000FA017A08D0007908CF007808CE007708DE
:1008B000CD00D40BCF2B5008DD004F08DC004E08D4
:1008C000DB004D08DA005A08B63CDA00FA015B0892
:1008D000DE00DB170310DB0CDC0CDD0CFA0CF90C72
:1008E000F80CF70CDA0B6A2CDE1F812CF709F809DB
:1008F000F909FA09F70A0319F80A0319F90A031999
:10090000FA0A7A08D0007908CF007808CE00770874
:10091000CD00D01F982CD203D216CD09CE09CF0915
:10092000D009CD0A0319CE0A0319CF0A0319D00A38
:100930003B30D9009A30D800CA30D700D6010A30EF
:10094000D40051080319D20A5008DD004F08DC001A
:100950004E08DB004D08DA005908E1005808E000B5
:100960005708DF005608DE0087230008CD00840A00
:100970000008CE00840A0008CF00840A0008D000D6
:10098000FD308407F708031DD82C510A54020319BF
:10099000D82C52080319DA2C0F3954020319D22C1F
:1009A00003180A2DD21B0A2D521BDA2C2030062DDB
:1009B0002030D205D21EE82CD2125108031DD203DA
:1009C0007708D2002D30DA00CA215208F700D20190
:1009D00051085402031DF62C7708D2002E30DA009D
:1009E000CA215208F7002030D20500303030D21E24
:1009F000062DD2125108031DD2037708D2002D30E4
:100A0000DA00CA215208F700D2013030F707770820
:100A1000DA00CA215908DD005808DC005708DB005D
:100A20005608DA00E101E001DF010A30DE00872329
:100A30007A08D9007908D8007808D7007708D60056
:100A4000D40BA42C080080308318D206D701D8011B
:100A50004E08D6005208D6064D080319132ED500AD
:100A6000F700510803191C2ED5020319B82D031CD9
:100A7000762D5208DB00DB175308DA005408D90042
:100A8000D8010310DB0CDA0CD90CD80CD50B402D97
:100A9000D61F4D2D5714302E571055105716503065
:100AA00084008313452E5712D61B602D551C6B2DC9
:100AB000DB0CDA0CD90CD80CF70A03192B2E6B2D92
:100AC000DB1B6E2D0310D80DD90DDA0DDB0DF703EE
:100AD00003192B2E602D5717D82D57134E08D6000B
:100AE000D61F742DDB17242EDB13242E5108D500BE
:100AF000F7004D08D5024E08DB00DB174F08DA007F
:100B00005008D900D8010310DB0CDA0CD90CD80C32
:100B1000D50B822DD61F8F2DD714302ED710551000
:100B2000D716543084008313452ED712D61BA22D1E
:100B3000551CAD2DDB0CDA0CD90CD80CF70A0319B7
:100B40002B2EAD2DDB1BB02D0310D80DD90DDA0DDA
:100B5000DB0DF70303192B2EA22DD717D82DD71392
:100B60005208D600D61FB62DDB17242EDB13242EF9
:100B70005208DB00DB175308DA005408D900D61FEF
:100B8000C52DDB135715302E5711D8015510503095
:100B900084008313452ED61BEE2D4E08D600551C1F
:100BA000D82DDB0CDA0CD90CD80CF70A03192B2E34
:100BB000D81FE92DD90A031DE92DDA0A031DE92DF5
:100BC000DB0A031DE92DDB0CDA0CD90CF70A03193B
:100BD0002B2E571B6D2DD71BAF2D0D2E8030DB0616
:100BE000DB1FF62D302E5208D600032E4E08D600FD
:100BF000DB08031D032EDA08031D032ED908031D8D
:100C0000032EF701242EDB1B0D2E0310D80DD90D5A
:100C1000DA0DDB0DF70B032E2B2ED61F112EDB1753
:100C2000242EDB13242E5108F7005208DB00530852
:100C3000DA005408D900242E4D08F7004E08DB00D6
:100C40004F08DA005008D9005B08F8005A08F9008C
:100C50005908FA00632EF701F801F901FA01632E31
:100C6000D801D909DA09DB09D809D80A031D3E2EB3
:100C7000D90A031D3E2EDA0A0319DB0A57184C2D38
:100C8000D7188E2D5719C42DF32D0008D907031C32
:100C90004F2EDA0A031D4F2EDB0A03195514840365
:100CA0000008DA07031C572EDB0A031955148403C6
:100CB0000008801F803ADB0703185514571A532D7C
:100CC000D71A952DCB2D08004E08D5005208D50611
:100CD000D51F6F2E03110310CE1B0314A22E4E0836
:100CE000D5005108D6004D08D60203197D2ED51F18
:100CF000A22E0308013A8300A22E5208D6004E0805
:100D0000D6020319892ED51FA22E0308013A8300AB
:100D1000A22E5308D6004F08D6020319952ED51FD0
:100D2000A22E0308013A8300A22E5408D6005008D0
:100D3000D6020319A12ED51FA22E0308013A830063
:0A0D4000A22E03108A150A12E02A01
:10100000840183131F308305831603170908C03931
:10101000890003131F129F120030031788008312E8
:101020008701880189010313A101A20107308316FA
:101030008500033086008312061186118A117229F9
:101040008A15043003178D0000308F008A110313B6
:10105000F7218A150F3003178D0000308F008A1199
:101060000313F7218A15C830DB008A11A5208A15E1
:10107000153003178D0000308F008A110313F721FC
:101080008A15203003178D0000308F008A1103135A
:10109000F7218A15C830DB008A11A5208A1529306E
:1010A00003178D0000308F008A110313F7218A1572
:1010B000343003178D0000308F008A110313F7219D
:1010C0008A15C830DB008A11A5208A153D30031728
:1010D0008D0000308F008A110313F7218A156430C8
:1010E000DB008A11A5208A150A30DA008A11CA218C
:1010F0008A15061C8528473003178D0000308F00A5
:101100008A110313F7218A157928513003178D00AE
:1011100000308F008A110313F7218A15A108031DDF
:10112000A72A1630DB008A11A5208A1586189E286A
:10113000A20A2208053C03189E28A2012208FA3EB2
:101140000318A62A063EFA2B1F179F1783169F1710
:1011500083121F14831603170908C039890003136B
:101160001F129F120130031788000030F80083120D
:1011700003131F08C33978049F000630F700F70BEC
:10118000BF2800009F149F18C32883161E088312CF
:10119000A5001E08A600CE010530CD002608D0000F
:1011A0002508CF008A113D228A157908CE007808DB
:1011B000CD004E08D0004D08CF008A1152228A156A
:1011C0007A08D2007908D1007808D0007708CF00DB
:1011D000D601D501D4018930D3008A116F228A1536
:1011E0007A08B4007908B3007808B2007708B10033
:1011F0003408D2003308D1003208D0003108CF00C3
:10120000CD30D600CC30D5004C30D4007A30D3006D
:101210008A116F228A157A08B8007908B700780811
:10122000B6007708B5005A3003178D0000308F00E4
:10123000031006300313CD008A1139238A150230BA
:1012400084003808D0003708CF003608CE003508B3
:10125000CD000230D1008A11C9238A15DF30DA00AF
:101260008A11CA218A15603003178D0000308F0063
:10127000031405300313CD008A1139238A15A62AD9
:101280001F179F1783169F1783121F1483160317A8
:101290000908C039890003131F129F120230031777
:1012A00088000430F800831203131F08C339780440
:1012B0009F000630F700F70B5B2900009F149F1872
:1012C0005F2983161E088312A7001E08A800CE01FE
:1012D0000530CD002808D0002708CF008A113D2214
:1012E0008A157908CE007808CD004E08D0004D0848
:1012F000CF008A1152228A157A08D2007908D100CB
:101300007808D0007708CF00D601D501D401893004
:10131000D3008A116F228A157A08BC007908BB00B5
:101320007808BA007708B9003C08D2003B08D10021
:101330003A08D0003908CF00D601D501D4017E305B
:10134000D3008A116F228A157A08C0007908BF007D
:101350007808BE007708BD0083143808D00037082D
:10136000CF003608CE003508CD004008D4003F0835
:10137000D3003E08D2003D08D1008A1123258A15EA
:101380007A08C8007908C7007808C6007708C50041
:1013900083103808D0003708CF003608CE00350853
:1013A000CD004008D4003F08D3003E08D2003D08DD
:1013B000D1008A1123258A157A08C4007908C30050
:1013C0007808C2007708C10083144408D00043089D
:1013D000CF004208CE004108CD004808D40047089D
:1013E000D3004608D2004508D1008A1123258A156A
:1013F0007A08CC007908CB007808CA007708C900C1
:10140000643003178D0000308F0003100A3003137F
:10141000CD008A1139238A15023084004C08D0008F
:101420004B08CF004A08CE004908CD000230D10059
:101430008A11C9238A15DF30DA008A11CA218A1578
:101440004330DA008A11CA218A15A62A6E300317A2
:101450008D0000308F00031006300313CD008A1179
:1014600039238A15023084004408D0004308CF0095
:101470004208CE004108CD000230D1008A11C923B4
:101480008A15DF30DA008A11CA218A1574300317F1
:101490008D0000308F00031404300313CD008A1137
:1014A00039238A15A62A773003178D0000308F0064
:1014B000031006300313CD008A1139238A15023038
:1014C00084004808D0004708CF004608CE004508F1
:1014D000CD000230D1008A11C9238A15DF30DA002D
:1014E0008A11CA218A157D3003178D0000308F00C4
:1014F000031404300313CD008A1139238A15A62A58
:10150000803003178D0000308F008A110313F721FC
:101510008A150530DB008A11A5208A150618922A43
:101520000130A100A62A893003178D0000308F00FA
:101530008A110313F7218A150530DB008A11A520D3
:101540008A150618A52A0130A100A62A8E289230F5
:1015500003178D0000308F008A110313F7218A15BD
:101560001F179F1783169F1783121F1483160317C5
:101570000908C039890003131F129F120430031792
:1015800088000830F800831203131F08C339780459
:101590009F000630F700F70BCB2A00003008D00080
:1015A0002F08CF002E08CE002D08CD004408D4000F
:1015B0004308D3004208D2004108D1008A11642EAA
:1015C0008A150318E52A031D6F2B9F149F18E62A1E
:1015D00083161E088312A3001E08A400CE01053046
:1015E000CD002408D0002308CF008A113D228A159F
:1015F0007908CE007808CD004E08D0004D08CF0005
:101600008A1152228A157A08D2007908D100780806
:10161000D0007708CF00D601D501D4018930D3009E
:101620008A116F228A157A08AC007908AB00780815
:10163000AA007708A9002C08D2002B08D1002A089C
:10164000D0002908CF00CD30D600CC30D5004C30AA
:10165000D4007A30D3008A116F228A157A08B0003C
:101660007908AF007808AE007708AD000A30DA00DC
:101670008A11CA218A155430DA008A11CA218A15C2
:101680003D30DA008A11CA218A1502308400300800
:10169000D0002F08CF002E08CE002D08CD0002303C
:1016A000D1008A11C9238A15DF30DA008A11CA21D4
:1016B0008A154330DA008A11CA218A152030DA00EF
:1016C0008A11CA218A15983003178D0000308F00C7
:1016D0008A110313F7218A1506158615F82B9F1416
:1016E0009F18702B83161E088312A3001E08A400E7
:1016F000CE010530CD002408D0002308CF008A1188
:101700003D228A157908CE007808CD004E08D00019
:101710004D08CF008A1152228A157A08D200790822
:10172000D1007808D0007708CF00D601D501D401C8
:101730008930D3008A116F228A157A08AC007908A3
:10174000AB007808AA007708A9002C08D2002B0863
:10175000D1002A08D0002908CF00CD30D600CC30E7
:10176000D5004C30D4007A30D3008A116F228A150C
:101770007A08B0007908AF007808AE007708AD00AD
:101780000A30DA008A11CA218A155430DA008A1127
:10179000CA218A153D30DA008A11CA218A15023021
:1017A00084003008D0002F08CF002E08CE002D086E
:1017B000CD000230D1008A11C9238A15DF30DA004A
:1017C0008A11CA218A154330DA008A11CA218A1582
:1017D0002030DA008A11CA218A159F3003178D0044
:1017E00000308F008A110313F7218A150611861124
:1017F000CE2A630000000A108A100A15023E031860
:101800008A0A8200A4284029262A532A802A932A59
:04400E00E42FFF3F5D
:00000001FF
;PIC16F887
;CRC=B302  CREATED="20-sep.-22 20:03"
